:020000040000FA
:030000000200FCFF
:100083000216EE00000080FB12010BB90003020010
:10009300F6E490F1FF78A479018002F0A3D8FCD9AB
:1000A300FA90F2A2AA82AB83903247789C790480BB
:1000B30015E493A3AC82AD838A828B83F0A3AA82D7
:1000C300AB838C828D83D8E9D9E790F1FFAA82AB09
:1000D30083903247780179018015E493A3AC82AD14
:1000E300838A828B83F0A3AA82AB838C828D83D88D
:1000F300E9D9E712150A12008675D0007581C0751B
:1001030010FF7511F102008B790122E0667010086F
:10011300A3E066700A08A3E066700408A3E0662201
:10012300E4936670130874019366700C0874029369
:10013300667005087403936622C3E7960809E79679
:100143000809E7960809E796A2D265D03322C3E7E8
:10015300960809E7960809E7960809E79622C3E097
:100163009608A3E09608A3E09608A3E09622C3E4CA
:1001730093960874019396087402939608740393F4
:100183009622080808E630E711120A4112019D0879
:100193000808C64480C618181822181818E9799E4A
:1001A300C608CAC608CBC608CCC6C370207996CA8F
:1001B300CBCC7019798ECBCC70137986CC700EF9B9
:1001C300802ACA33CACB33CBCC33CC331930E7F2D2
:1001D300CCCBCA3350147004EA30E00DE4CA3ACAF7
:1001E300CB3BCBCC3CCC500209C3E913C6CC182380
:1001F30013C6CB18C6CA18C6F92212023D20F01442
:1002030030E72B74FFFCFBFA747F8022E4FCFBFADB
:100213007480801AB48008BC00F2BB00EF800F50DA
:10022300EBF9E4C39AFAE49BFBE49CFCE499C6CCA7
:1002330018C6CB18C6CA18C6F922E4C9C608CAC666
:1002430008CBC6D3330308CCC63392F0C3947F40A4
:100253002E94184019C9B90704CACBCC225025C320
:1002630009CA33CACB33CBCC33CC33D9F422F460B1
:100273000DC9CCC313CB13CBCA13CAD9F6CC22E412
:10028300FCFBFA2214FCFBFA22E6C3331846184699
:10029300184622E7C3331947194719472218181874
:1002A300E6084608700AE608C3337005E633F4220D
:1002B3000822191919E7094709700AE709C33370B6
:1002C30005E733F4220922E6084608C31346083338
:1002D3006002E633F422E7094709C3134709336091
:1002E30002E733F4221202CA60251202D9602012F7
:1002F300028C7003020296080808E766701018194A
:10030300E766700A1819E76670041819E76622F49D
:10031300221202CA601C1202D9601712028C7007E3
:100323001202967001D322C0D01202967006D0D06A
:10033300B322C32233D0D0501430E0F6C3E796087B
:1003430009E7960809E7960809E796B32220E0D55E
:10035300E6970809E6970809E6970809E697B3229E
:100363001202CA601B1202D9601612028C700712A5
:100373000296600CB322C0D01202967005D0D02230
:10038300C32233D0D0501330E0EBC3E7960809E71C
:10039300960809E7960809E7962220E0E4E697081D
:1003A30009E6970809E6970809E69722001202CAA8
:1003B300604F1202D96012E7548066F61202A070F1
:1003C30011120296703B090909F4F618F618F6188B
:1003D300F6221202B5701512028C08080860EAE6CC
:1003E300447FF618768018E4F618F62212028C6021
:1003F300161202967012E4F608F608F608E6548020
:10040300F609090918181822EAC0E0EBC0E0ECC0AD
:10041300E0EDC0E0E687F0A4FBACF008E687F0A4CB
:100423002CFCE435F0FA1809E687F0A42C4B6002A3
:100433007401CA35F0FCE433FB09E687F0D2F7A474
:100443002CCB35F0FC1908E687F0A42BCC35F0FB58
:10045300E433FD0819E687F0D2E7A42C4ACB35F044
:10046300CD3400FC09E687F0D2E7A42DCC35F0FDAE
:10047300E433FA0918E687F0D2F7A42CCD35F0CA95
:100483003400FC08E687F0D2E7D2F7A42ACC35F093
:100493007A7E20E70B0ACB33CBCD33CDCC33CC33B1
:1004A300CB3350147004ED30E00ED2F1E4CD3DCDEA
:1004B300CC3CCC3B5005DA05C2F1EB547FC6330884
:1004C300E63392F0FBE73309E733C39A502D2B70E1
:1004D300190C0D4C4D70151806E608C333700D202A
:1004E300F10AA2F013F6E418800B4024E4F630F08E
:1004F30002768018F618F618F68024D33B145010B1
:1005030074FFA2F013F6187680E418F618F6800F3D
:10051300A2F013F618E63303F618ECF618EDF6D04E
:10052300E0FDD0E0FCD0E0FBD0E0FA221202D9607B
:10053300461202CA603DE9687008F618F618F61804
:10054300F622748067F7120563090909748067F757
:10055300221202CA601D1202D97005191919801AD4
:100563001202A0701F1202B5C37003E66733191994
:100573001940071818182208080874FFF618F61807
:10058300F618F6221202B56017120296702192F045
:1005930012028C7019501720F01408080809090971
:1005A300E7F61819E7F61819E7F61819E7F622120D
:1005B300028C60E6E869701F0808E62480F608E408
:1005C30036F618547FB47F0CE654806007F6E418BF
:1005D300F618F622181822E9C6CC08C6CD08C6CEEE
:1005E30008C6CFC0E0E8C0E0EAC0E0EBC0E009E93C
:1005F300F809E7FA09E7FBE6F918E6F8C3EC98ED22
:1006030099EE9AEBC2E7F5F0EFC2E795F0500E6072
:100613000CEBCFFBEACEFAE9CDF9E8CCF8EAA2E796
:10062300D2E7FAEB33FB13F5F0EEA2E7D2E7FEEFE6
:1006330033FFC5F013A2E730E601B313C5F0C3C01F
:10064300E0C0F07F00C39BFB605B9418600C401A12
:10065300D0E023F9D0E0F80207328AF0E9486003DA
:10066300D2F0E4AFF0FAF9F8803BEB30E40D89F017
:10067300EA6003D2F0E4AFF0F9CAF8EB30E30D8897
:10068300F0EF6002D2F0AFF0E4CAC9F8EB540760B0
:1006930014FBC3EA13FAE913F9E813F8EF13500252
:1006A300D2E0FFDBEDD0E0C0E030E739C3E49FFFE9
:1006B300F5F0EC98FC42F0ED99FD42F0EE9AFE4223
:1006C300F0D0E0F9D0E0F8E5F0607AE923F9EE2024
:1006D300E742D8028067C3EF33FFEC33FCED33FD11
:1006E300EE33FE80EAEC28FCED39FDEE3AFED0E075
:1006F30023F9D0E0F84002801BC3EE13FEED13FD97
:10070300EC13FCEF135002D2E0FF08B800067F7F22
:1007130074FF802EEF3350178CF020F00260100C22
:10072300BC000C0DBD00080EBE000408E860DFE944
:1007330033E813FFEE2313FE4F4D4C8008E954803A
:10074300FFE4FEFDFCEE33EF33F47004FCFD7E802A
:10075300D0E0FBD0E0FAD0E0F8D0E0CFC618CEC6A8
:1007630018CDC618CCC6F9221202CA70041818187C
:10077300221202D9700D74FFF61819F61819F6181B
:1007830019F622E7548066F612028C700F12029655
:1007930070F014F608F608F608F680D11202967087
:1007A3000CF608F608768008E6447F80EC1202B85F
:1007B300700C1202A360BFE65480F6E480BB120201
:1007C300A3700519191980A5E869700C763F18768E
:1007D3008018F618F6E8F922E6CDC0E018ECC0E080
:1007E300E633CD33CDD313F6E719FCE7191933CC30
:1007F30033C3947F400ECD9D502408E65480F6E425
:1008030018F6800FF4043D14501408E6447FF618DC
:100813007680E418F618F6D0E0FCD0E0FD22CCD3C5
:1008230013CCFD18E4C6CBC0E018E4C6CAC0E00888
:1008330008ED08C633E613F618E433C675F003C3B0
:10084300CA97CA09CB97CB199C40047D08802EBD5B
:10085300000302091416B6FF050606081618C3CAD4
:1008630033CACB33CB33CA27CA09CB37CB193CC3E3
:100873007D08803E187D0820E75CC633C6CA33CAAC
:10088300CB33CB33DDF1D5F0EB30E77BCA97CA0925
:10089300CB974ACB199C406F4B7025E620E0218013
:1008A30066187D08C3CA97CA09CB97CB199CD3C6D0
:1008B30033C6CA33CACB33CB3350C9DDE7D5F0E1F6
:1008C300D3E4C636C608C636C608C636C608C63614
:1008D300C61818188031C3CA97CA09CB97CB199C7D
:1008E300B34097C633C6CA33CACB33CB33DD34D513
:1008F300F02EC6A2E0C640C8CA27CA09CB37194A98
:1009030070BECB3CB480B90808E63308E633601FF9
:10091300181818D0E0FAD0E0FBD0E0FCD0E0FD22BC
:10092300187D08CA27CA09CB37CB193CD38080135B
:10093300F618E4B67F11F618B6FF0EF618C6047063
:10094300D20808768080CAF618F618F680C508081B
:1009530008EAC0E0EBC0E086F0E7A4FA180986F0E5
:10096300E7A42AFA180986F0E7A42AFA180986F0F8
:10097300E7A42AFA1986F0E7A4FBE5F02AFA190896
:1009830086F0E7A42BFBE5F03AFA190886F0E7A412
:100993002BFBE5F03AFA18180986F0E7A4C5F02B0B
:1009A300FBE43AFA1908E7C5F0C6A426F6E5F03BDE
:1009B300FBE43AFA1886F0E7A4F6E5F00826F6E435
:1009C3003B08F6E43A08F6D0E0FBD0E0FA22E4CFA5
:1009D300C0E0E4CEC0E0E4CDC0E0E4CCC0E075F01C
:1009E30020C3E633F608E633F608E633F608E633C3
:1009F300F6181818EC33FCED33FDEE33FEEF33FF3E
:100A0300C3EC9709ED9709EE9709EF971919194068
:100A13000FFFEC97FC09ED97FD09EE97FE191906F8
:100A2300D5F0BEECF709EDF709EEF709EFF7191961
:100A330019D0E0FCD0E0FDD0E0FED0E0FF22181892
:100A430018E4C396F608E496F608E496F608E496E6
:100A5300F6226016080808C6C313C618C613C618BC
:100A6300C613C618C613C6D5E0EA227009080808DB
:100A7300226016181818C6C333C608C633C608C67C
:100A830033C608C633C6D5E0EA22E627F60809E6E8
:100A930037F60809E637F60809E637F622E026F6C0
:100AA30008A3E036F608A3E036F608A3E036F622FC
:100AB300E026F008A3E036F008A3E036F008A3E050
:100AC30036F022C3E0C696F608A3E0C696F608A35E
:100AD300E0C696F608A3E0C696F622E647F60809AE
:100AE300E647F60809E647F60809E647F622E0F680
:100AF30008A3E0F608A3E0F608A3E0F622E6F00870
:100B0300A3E6F008A3E6F008A3E6F022CAC0E0E6F5
:100B1300F0A308DAFAD0E0FA22CAC0E0E0A3C58263
:100B2300CCC582C583CDC583F0A3C582CCC582C5A0
:100B330083CDC583DAE6D0E0CA22C3E498F8E4990A
:100B4300F9120B7E8026C3E49AFAE49BFBE920E7C3
:100B5300E9120B7EE498F8E499F922C3E498F8E4E7
:100B630099F9120B7EE498F8E499F9C3E49AFAE44C
:100B73009BFB22EB20E7CFE920E7E0B90010BB00A5
:100B830008E88AF084F8AAF022E4FBC8FA22EB70A2
:100B9300227B10C833C8C933C9335007C39AC3DB98
:100BA300F280069A50012ADBEAC833F4C8C933F449
:100BB300C9FA2275F008E4C833C8C933C933C99ADE
:100BC300C99B5004C92AC93BD5F0ECFBC833F4C810
:100BD300E4C9FA22600D08C6A2E713C618C613C6F5
:100BE300D5E0F322700422600D18C6C333C608C6CD
:100BF30033C6D5E0F418222510C0A8C2AF400215B1
:100C030011F510D0A822C0D02510C0A8C2AF500241
:100C13000511F510D0A8D0D0222510F582C0A8C2A6
:100C2300AF40021511F510D0A8851183222510F5C8
:100C330082E43511F58322E4732510C582C0E0E513
:100C43001134FFC583C0E0E510C3958224F9C0A821
:100C5300C2AF858311858210D0A8CEF0A3E520F022
:100C6300A37808E608F0A3DEFAEFF0A3E58124FBFE
:100C7300F8E608F0A3E608F0A30808E608F0A3E600
:100C830008F0A315811581D0E0FED0E0F815811599
:100C930081E8C0E0EEC0E022851183851082E0A3E5
:100CA300FEE0A3F5207808E0A3F608DFFAE0A3FF4F
:100CB300E0A3C0E0E0A3C0E0E0A3C0E0E0A3C0E0A5
:100CC30085A8F0C2AF85821085831185F0A8D083F3
:100CD300D0822274048006740280027401C0E0F49E
:100CE30004120C1CD0E0120B0F2274028000CCC043
:100CF300E0EDC0E0E510C39CCCAD1150011DC0A8D0
:100D0300C2AF8C108D11D0A8120B1CD0E0FDD0E027
:100D1300FC22D083D082C5F0E493A3C5F0C395F041
:100D2300F5F0E493A3C395F04005E5F0048001E4F6
:100D330075F002A42582F582E5F03583F583E4930B
:100D4300A3C0E0E493C0E022D083D082CCC0E0E42F
:100D530093A36006120D751470FAE493A360061250
:100D63000D941470FAD0E0FCE493A3C0E0E493C0C4
:100D7300E022C0E0E493A3D39C5010E493A3C39C6C
:100D8300400AD0E0D0E0D0E0020D68A3A3A3D0E0F6
:100D930022C0E0E493A36C7009D0E0D0E0D0E0027D
:100DA3000D68A3A3D0E022D083D082ECC0E0EDC0D5
:100DB300E0EEC0E0EFC0E0E493A3FCE493A3FDE422
:100DC30093A3FEE493A3FFEF4E4D4C6015120E2642
:100DD300EC24FFFCED34FFFDEE34FFFEEF34FFFFA8
:100DE30080E5E493A3FCE493A3FDE493A3FEE493DF
:100DF300A3FFEF4E4D4C6015120E63EC24FFFCED88
:100E030034FFFDEE34FFFEEF34FFFF80E5D0E0FF5B
:100E1300D0E0FED0E0FDD0E0FCE493A3C0E0E49397
:100E2300C0E022C0E0C0F088F0120171A8F04007D2
:100E3300120123A8F0701AA3A3A3A3120171A8F0AF
:100E4300A3A3A3A34013D0F0D0E0D0E0D0E0020EE0
:100E530010A3A3A3A3A3A3A3A3A3A3D0F0D0E0228F
:100E6300C0E0C0F088F0120123A8F0A3A3A3A370ED
:100E73000BD0F0D0E0D0E0D0E0020E10A3A3D0F06E
:100E8300D0E02274F5120C3C750801750900EB786B
:100E930008120BE7AC08EC45F2F5F2C28DEA494BB8
:100EA300F5B6A28D50FCE5BBF509E5BAF508ECF4FF
:100EB30055F2F5F2EA131313541FFAC394034001D6
:100EC3001A7409C39A7808120BD7AA08AB097F04CE
:100ED300020C9BC082C083A281E492E0F45401F926
:100EE30060087A00A281500C7900E490F1FFF0D001
:100EF30083D082220AEAC3940A40E990F1FFE070AA
:100F0300067401F0F980E8790080E474F8120C3C6F
:100F130074FE120BFAE9FE851082851183E0C0E0AE
:100F23007401120C30D0E0F07B067A007980120E47
:100F330086EAC333FA74816E705A90DF37E0C39444
:100F430004405FEAC39410A2D265D033405FEAC382
:100F53009440A2D265D0334063EAC39460A2D265C1
:100F6300D0334067EAC39470A2D265D033406BE4B8
:100F7300851082851183F0E0FA7401120C30E06A67
:100F83007095851082851183E0F97402120C097F34
:100F930001020C9B74016E70AA90DF37E0C39403C7
:100FA30050A1EAC39410A2D265D0335004740480D4
:100FB300BFEAC39440A2D265D0335004740180B019
:100FC300EAC39450A2D265D0335004740280A1EADC
:100FD300C39460A2D265D033509574038092C082CB
:100FE300C08374F8120BFA53FEFB53FFFE53F4FB5A
:100FF30053F5FE53F6FB53F7FE53F7BF53F77F74D6
:1010030076851082851183F07401120C30E4F0743C
:1010130002120C30740CF07403120C307421F0744F
:1010230004120C3074A0F07405120C307407F074C1
:1010330006120C307434F07407120C307401F0791A
:1010430008851082851183AA82AB831212967C00D5
:101053007DF27A007BF21210667408120C09D083B9
:10106300D08222C082C0838C828D83790012107E4D
:10107300AA82AB83790112107E80E374F5120C3CD3
:1010830074CE120BFAEAFEEBFF747685108285119B
:1010930083F07401120C30E4F0E970047A8080026A
:1010A3007AC07402120C30EA12118E7509007401B1
:1010B300120C307440F07508028003121100850988
:1010C3000AEE250AF582EF3400F583E0F96007E5BF
:1010D30009C3941040E5E509C39410500779201221
:1010E300110080F2A908851082851183AA82AB833F
:1010F3001212967432120C097F04020C9B121347CE
:1011030085080A851082851183E582250AF582E523
:10111300833400F583E9F0050805092274F8120CFD
:101123003CE9FEEAFFEBF9121347E9FBEFFAEEF9AC
:10113300121138805174F8120C3C74FD120BFAEB47
:10114300FEEAC3941140027A0F74768510828511EA
:1011530083F07401120C30E4F0E9700478808002AB
:1011630078C0E82AC0E07402120C30D0E012118E6D
:101173007401120C307440F07402120C30EE121130
:101183008E7403120C097F01020C9BF07903851006
:1011930082851183AA82AB831212962274F8120CF1
:1011A3003C74F6120BFAEAFEEBFF74768510828527
:1011B3001183F07401120C30E4F0E9C3944074021B
:1011C3005007120C3074808005120C3074C0F07418
:1011D3003F594440C0E07403120C30D0E0F079046E
:1011E300851082851183AA82AB8312129674011231
:1011F3000C307440F08E828F83E0C0E07402120CD6
:1012030030D0E012127BE0C0E07403120C30D0E067
:1012130012127BA3E0C0E07404120C30D0E012126F
:101223007BA3A3E0C0E07405120C30D0E01212825D
:10123300E0C0E07406120C30D0E0121282A3E0C0CA
:10124300E07407120C30D0E0121290E0C0E0740892
:10125300120C30D0E0121290A3E0C0E07409120C1B
:1012630030D0E0F0790A851082851183AA82AB839E
:10127300121296740A021186F08E828F83A32212B1
:10128300128622F08E828F83A3A3A3A32212128637
:10129300A3A32274F3120C3CEAFEEBFF890AA29289
:1012A30050FCA2A050F843FE04C29212140279002B
:1012B300121336750900802D43FE04C29279011280
:1012C300132DC333F50B1508E5087033790012139A
:1012D3003653FEFB7901121336A292E492E0F454E2
:1012E3000160090509E509C3950A502185090CEE3A
:1012F300250CF582EF3400F583E0F50B75080879CA
:101303000012132DA2E750B053FEFB80B0A292400F
:10131300FCA2A050F8790012133653FEFB121402FC
:1013230079011213367F06020C9B12133612140234
:10133300E50B22E9700743FF01C2A0800353FFFEC0
:1013430012140222C082C083E9C39461E9400CC332
:10135300947B502B748029F90213FFC39441E94015
:1013630007C3945B501980ECC394204006E9C394EF
:101373002440E1E9C394254006E9C3944040D5E9FC
:10138300120D4B001110F11311F51312F91313FD84
:101393001324BD1340C9135BCD135DD1135FD51364
:1013A300A3C513A7C113C5ED13C6E513D8E913E508
:1013B300E113E6D913F8DD13FF137982803E79DF59
:1013C300803A7981803679808032798A802E795487
:1013D300802A795A8026799D8022798C801E798F84
:1013E300801A799C8016798B8012798E800E791001
:1013F300800A792080067912800279300210617A9E
:1014030001EA1A70FC22E9600B43C640E5BEA2E57F
:1014130050FA800F53BEFBE5BEA2E650FA0053C656
:1014230080E5C643BE042274F1120C3CE96057897F
:1014330082AA828A0875090074077808120BE7F5F7
:101443000AF50BEA75F03BA4FAACF0E42C8A0CF530
:101453000D3395E0F50EF50F7808790C120A8D74AB
:101463000355C67808120A5585080C85090D850AA7
:101473000E850B0F90F2A27808120AA090F2A678BC
:101483000C12010E70E27F08020C9BC082C0839095
:10149300F208E054F0F0741390F207F074106970DE
:1014A3002B74F290F201F0740990F202F074DF9061
:1014B300F203F074D990F204F0742090F205F07402
:1014C3001290F206F090F2087440802E7420697036
:1014D3002A74DF90F201F074D990F202F074F29062
:1014E300F203F0740990F204F0748090F205F07442
:1014F3001490F206F090F2087410F074F2F5D575BA
:10150300D401D083D08222D29043FE0153F4FE79DA
:1015130000121409120FE11220F0120ED6E960FA3C
:1015230012190E12183D8A088B098C0A8D0B780844
:10153300120CD61218A1121B1A7404120C091217DA
:10154300E3E990F222F0641060030215F9791012B6
:1015530016C1741190F209F0745A90F20AF074A54E
:1015630090F20BF07A078A08E5082409F582E4343F
:10157300F2F58374CCF00AEAC3941240E912180D11
:101583008A088B098C0A8D0B804490F304780C1223
:101593000AA0780C79081201514031AA0CAB0DACAA
:1015A3000EAD0F12203243D60175E10390F220E015
:1015B30060FAE4F0AA0CAB0DAC0EAD0F121ADA7997
:1015C3000312142A120ED6E9640170BED2907CB6BF
:1015D3007DF27AAA7BF2121066120ED6E960FA7CCB
:1015E3001D7DF27AC67BF2121066C29090F30478E6
:1015F3000C120AF1809CE0642060030216C079207B
:101603001216C17CE07DF27AD77BF212106675D692
:101613000175E10290F221E060FA7CF57DF27AE84F
:101623007BF212106690F221E060FAE4F0121F34AC
:10163300E96023740190F21FF0C2901216CDC3E04B
:1016430098F0A3E099F090F21BE0F91220B612167D
:10165300D9EAF0A3EBF075D60175E10290F21FE031
:1016630060C31219A81216CDE028F0A3E039F09058
:10167300F264E0FAA3E0FB121A6990F263E004F06B
:1016830064207002E4F090F21EE02401F05420C4C0
:101693001320E2045407800244F8F83395E0F9E894
:1016A30024E2F582E93435F583E493FB7A0F79007C
:1016B30012111FE490F21FF0D29002162822121486
:1016C3008E439A01759110D2AF221216D9E0F8A376
:1016D300E0F990F2642290F263E0C333F8E433F963
:1016E300E82423F582E934F2F58322C0E0C0D0C0B8
:1016F30082C08353E9EF539BFCE59B90F222E064A5
:10170300207007740190F2218005740190F220F09B
:10171300D083D082D0D0D0E03274F1120C3C8A0E48
:101723008B0F89098C08750D01750C00ECC39509A5
:10173300401A74FF2509F50880127E137A0F790089
:1017430012111FEEFB7A0F790112111F120ED6E947
:101753006005A908021A6490DF36E0F9120F0EE95A
:10176300FA85090A74FF250AFE74FF3400FFE50CAD
:101773006A602A8A0CE9120D150301A01784178CDD
:1017830017E50860181508801885080AC3E50A9E3E
:10179300E49FA2D265D033500405088004E50D60B0
:1017A300AB750D0085088285820AE50AC333F8E428
:1017B30033F9E50E28F582E50F39F583E0FAA3E066
:1017C300FB790112107EE50870047B2080027B12F6
:1017D300EE650A7001EF600302173D7E2002173F9A
:1017E30074F7120C3C7A067B36790012107E7C016A
:1017F30079027A5A7BF512171CE9245EF582E434E8
:10180300F5F583E0F97F02020C9B74F5120C3C7A28
:10181300FA7B35790012107E7C0379047A527BF5CA
:10182300121893120BE7E5082442F582E50934F513
:10183300F5837808120AF10218F574F5120C3C903E
:10184300F2A67808120AF17AE47B35121902701AAB
:101853007C0379047AFE7BF4121893120BE7E508F4
:1018630024EEF582E50934F4801DE06481701F7C69
:101873000379047A167BF5121893120BE7E5082413
:1018830006F582E50934F5F5837808120AF18062DA
:1018930012171CE9F508750900740278082274F51B
:1018A300120C3C90F2A67808120AF17AEF7B3512FB
:1018B3001902701A7C0279037A2A7BF512189312A3
:1018C3000BE7E508241EF582E50934F5801DE06485
:1018D30081701F7C0279037A3C7BF5121893120BFB
:1018E300E7E5082430F582E50934F5F58378081235
:1018F3000AF1AA08AB09AC0AAD0B7F04020C9B7971
:101903000012107E90DF36E0640122C082C0839013
:10191300DF36E06401700990DF37E0C394034011C0
:1019230090DF36E06481701F90DF37E0C39404508A
:10193300167A167B36790012107E7C00790A7A605B
:101943007BF512171C80F390DF36E0640170099079
:10195300DF37E0C39404501190DF36E06481701FD9
:1019630090DF37E0C3940540167A267B3679001260
:10197300107E7C0079097A747BF512171C80F39032
:10198300DF36E064016019E0648160147ACB7BF494
:10199300790012107E7ADC7BF4790112107E80FECE
:1019A300D083D0822274F1120C3C74F7120BFA909C
:1019B300F2A27808120AF17583F575828E780812FF
:1019C3000AA07405120C307808120B007405120C6F
:1019D300307808120AF190F2707808120AC690F271
:1019E3006C7808120AA090F586780C120AF1780830
:1019F300790C1209517405120C30780C120AF17823
:101A030008790C1209D178081201A090F58A780C94
:101A1300120AF17808790C12076B7808120CD67C3D
:101A2300DE7DF47404120C30AA82AB8312319574F8
:101A330004120C09851082E0FB7A06790012111F4B
:101A43007401120C30E0FB7A07790012111F740342
:101A5300120C30E0FB7A09790012111F7409120C81
:101A6300097F08020C9B74F7120C3C74FB120BFAEF
:101A7300EAF8EBF97A207B00120B7688088909785B
:101A830008120CDA7CE47DF47402120C30AA82ABE7
:101A9300831231957402120C09851082E0FB7A06D9
:101AA300790112111F7401120C30E0FB7A077901DE
:101AB30012111F7402120C30E0FB7A087901121123
:101AC3001F7403120C30E0FB7A09790112111F74A1
:101AD30005120C0902180874F5120C3C74F0120B71
:101AE300FA8A088B098C0A8D0B7808120CD67CE8CD
:101AF3007DF47404120C30AA82AB83123195740402
:101B0300120C09851082AA82AB83790112107E74AC
:101B130010120C090218FD74F1120C3C8A0C8B0D87
:101B23008C0E8D0F740F120C307808120AF190DFAF
:101B330036E064016003021D107808120DAA00004C
:101B43000000030000005C9D0600961BA03E0D00F4
:101B5300891B58C70D00731B5D1B74C090DF2EF0EB
:101B6300742390DF09F0743190DF0AF0743B8037FF
:101B730074C090DF2EF0742290DF09F074BB90DF05
:101B83000AF07413802174C290DF2EF07421121EA8
:101B93000F801474C090DF2EF0741090DF09F0747E
:101BA300AC90DF0AF0744E90DF0BF0780C120DAAA4
:101BB300000000000200000000960000821C90D08C
:101BC3000300C91BC91C90F592780812010E70041A
:101BD3007A0C80027A12EA90DF07F07412121E3D2B
:101BE300121EBD7462121F157418121F1DE490DFBC
:101BF30018F074B090DF19F074EA90DF1CF090F5E0
:101C030092780812010E70047A0A80027A2AEA9006
:101C1300DF1DF0741F121E28740990DF25F0780869
:101C2300120DAA0000000003000000A03E0D0042B8
:101C33001C58C70D00421C38F60D00421C7B1C903B
:101C4300F266744DF0A3E4F0E490DF06F074309094
:101C5300DF13F0740B90DF2FF0740690DF31F07414
:101C63000490DF03F0744590DF04F0E490DF05F0A7
:101C7300741190DF0202202C90F266744980C51221
:101C83001E1C74CA121EB77434121E8C7443121EA7
:101C93004C12010E70047A0A80027A2A121E6C1208
:101CA3000DAA0000000003000000A03E0D007B1CF5
:101CB30058C70D007B1C38F60D007B1CC11C90F22D
:101CC30066744A021C47121E1C74F5121EB7741563
:101CD300121E8C7403121E4C12010E70047A0A80B9
:101CE300027A2A121E6C120DAA00000000030000E3
:101CF30000A03E0D007B1C58C70D007B1C38F60D61
:101D0300007B1C081D90F266744B021C47E0648143
:101D13006003021C4B74FE90DF2EF07808120DAAAC
:101D2300000000000300000020ED2400661D403B7E
:101D33002500561D60892500461D3F1D745F121E38
:101D43000F802E745E90DF09F0749D90DF0AF074AB
:101D530089801E745D90DF09F074D890DF0AF074F7
:101D63009D800E745D90DF09F0741390DF0AF074A8
:101D7300B190DF0BF0780C120DAA000000000200F6
:101D8300000090D00300B91D20A10700931DD91DA9
:101D93007410121E1E740E90DF0CF0743B90DF0D56
:101DA300F0747390DF0EF07442121F017440121E20
:101DB300D87448021C47740A90DF07121E3D90DF57
:101DC3000DF0747390DF0EF07422121F01E4121EE3
:101DD300D87447021C477408121E1E747890DF0CD7
:101DE300F0749390DF0DF07403121EC77444121E37
:101DF300A67414121E957443121E5B74A9121EF46A
:101E0300121E28740B90DF25F0021CC190DF09F02D
:101E1300746290DF0AF0747622740690DF07F0E4B0
:101E230090DF08F022121E2C2290DF1FF07488909E
:101E3300DF23F0743190DF24F022F0E490DF08F028
:101E4300742D90DF0CF0743B22121E5B74E990DF5B
:101E53001CF090F59278082290DF17F0744090DF21
:101E630018F0749190DF19F022EA90DF1DF0741FCF
:101E730090DF1FF0748190DF23F0743590DF24F03E
:101E8300740990DF25F0780822121EA67418121E1A
:101E9300952290DF14F0741690DF15F0746C90DFC8
:101EA30016F02290DF11F0745690DF1AF074109040
:101EB300DF1BF02290DF0CF0748390DF0DF07413BE
:101EC300121EC72290DF0EF0742290DF0FF074F819
:101ED30090DF10F02290DF18F074B290DF19F074E5
:101EE300EA121EF4121E2C740B90DF25F090F2669A
:101EF3002290DF1CF0740A90DF1DF074112290DF32
:101F03000FF074F890DF10F0E4121F157414121F11
:101F13001D2290DF11F074B6808F90DF14F0741DD2
:101F230090DF15F0741C90DF16F074C790DF17F084
:101F33002274F1120C3C90F209E064116003022058
:101F43002890F20AE0645A600302202890F20BE022
:101F530064A56003022028E490F20AF090F20BF0EB
:101F630090F21CE0A2E7504EE4F012204C8A088B5A
:101F7300098C0A8D0B90F2687808120B0090F58E8D
:101F83007808120AF17583F2758268780812010ED7
:101F9300704190F3047808120AF190F58E780812D4
:101FA3000AB390F3047808120AF190F270780812D9
:101FB3000AB37901807190F3047808120AF190F55D
:101FC3008E7808120AB390F3047808120AF190F29B
:101FD3006C80CA90F3047808120AF17583F2758253
:101FE300687808120AA090F58E780C120AF17583AE
:101FF300F2758268780C12016190F58E7808120BE5
:1020030000509F90F2A67808120AF190F26C7808BB
:10201300120B0090F3047808120AF190F27078081A
:10202300120B00808D79008001F07F08020C9B74F5
:10203300F1120C3CED90F20CF0EC90F20DF0EB9001
:10204300F20EF0EA90F20F80E074F1120C3C90F281
:102053000CE0F508750900750A00750B0074187813
:1020630008120A6E90F20DE0F50C750D00750E0066
:10207300750F007410780C120A6E7808790C120A26
:10208300DE90F20EE0F50C750E007408780C120A5F
:102093006E7808790C120ADE90F20FE0F50C750DDC
:1020A300007808790C120ADEAA08AB09AC0AAD0B5A
:1020B30002202D74F7120C3C8982A8827900C3E8B0
:1020C3009480E49400C365D0334001197A027B0005
:1020D300120B768808890990F266E0F8A3E0F9E527
:1020E30008C398FAE50999FB7F02020C9B74F71267
:1020F3000C3C74A2120BFA742E120C30AC82AD831A
:102103007583F57582967430120B1C8510828511C8
:1021130083AC82AD837583F27582747420120B1CB9
:102123007420120C30AC82AD837583F27582947483
:102133000E120B1CFEEE33333354F82408F98E08C9
:1021430075090074037808120BE7742E120C30E53E
:10215300822508FAE5833509FB12119F0EEEC3941D
:102163000640D27401851082851183F0120C3074FD
:1021730002F0120C307403F07CC67DF5120C30AA09
:1021830082AB8312320B7410120C307404F074118E
:10219300120C307405F07412120C307406F07413C0
:1021A300120C307420F090DF36E06481700C122240
:1021B30012120CDA7CD47DF5800FE06401701B12DF
:1021C3002212120CDA7CE27DF57422120C30AA8200
:1021D300AB831231957402120C097420120C30ACCB
:1021E30082AD837413120C30AA82AB8312320B7448
:1021F30010120C30AC82AD83851082851183AA82C4
:10220300AB83121066745E120C097F02020C9B9062
:10221300DF37E0F50875090078082274F1120C3CE9
:1022230074FD120BFA7402120C30E9F08A088B0960
:102233008C0A8D0B7414120C30E0FEA3E0FF8510A2
:1022430082851183E4F0A3F090F625780C120AF14D
:102253007808790C12031450030222FB90F2A6783B
:102263000C120AF17808790C1202E8600302234F7A
:102273007416120C30E070030223918510828511CD
:1022830083C082C0837412120C3012304AD083D0C0
:1022930082122670502B851082851183C3E094FC33
:1022A300A3E094FFA2D265D03340167402120C301F
:1022B300E412311C7412120C30C3E098F0A3E099BD
:1022C300F07412120C301226B07417120C30E07036
:1022D3000302238E7416120C30E402239090F62925
:1022E300780C120AF17808790C12076B8510828535
:1022F3001183E0240A12314490F62D780C120AF16E
:102303007808790C12031440D490F58A780C120AD9
:10231300F17808790C120314400302227390F58AB2
:10232300780C120AF17808790C12076B12313B8092
:10233300D890F629780C120AF17808790C1203AFB9
:10234300851082851183E024F61226B390F6317846
:102353000C120AF17808790C12036340D490F62525
:10236300780C120AF17808790C12036340030222F5
:102373007390F58A780C120AF17808790C1203AF7E
:102383008510828511831226B080D27401F0740205
:10239300120C30E0600678007900807512268950AF
:1023A3006D1226A1120C30E0FCA3E0FDEC7001EDF0
:1023B30070087417120C30E0600B742E8E828F83BA
:1023C300F0A30EAF837A007B0080091226A1120CC2
:1023D300301226B0EA24FF1AEB34FFFB8510828506
:1023E3001183122660500C7412120C30E07002A399
:1023F300E070D885108285118374FFC39CF874FF45
:102403009DF912267050030225577801808A1226FF
:1024130078E8FAE9FB806B85080C85090D850A0EBF
:10242300850B0F780C1201FDAC0CE50D3395E0F52F
:102433000EF50F780C1201857808790C12052F9090
:10244300F58A780C120AF17808790C1203AFEC12B2
:102453002694EAF8EBF97401280AE439FBE87001E1
:10246300E9701F7412120C30E07002A3E07008745C
:1024730017120C30E0600B742E8E828F83F0A30E44
:10248300AF837412120C30122660508B90F635789D
:102493000C120AF17808790C120314400302255731
:1024A3007C01EE24FFF8EF34FFF97414120C30E0D2
:1024B300F508A3E0F50988828983E0642E6010E0C3
:1024C3002CF0643A70077430F07C0180027C00E8E1
:1024D300FAE9FBEA24FF18EB34FFF9C3E5089AE5B0
:1024E300099B40D2EC7001E4606A7402120C30E084
:1024F3006039EEF8EF800DE088828983F0E824FFED
:1025030018E934FFF9C3E50898E50999501812262C
:1025130042E0642E70E1E824FEF582E934FFF5839E
:1025230012264FF980D712313B801E8E828F83A3F0
:10253300AE82AF83EEF8EF800612264212264FF9E1
:10254300C3E50898E5099940F07414120C30123071
:102553007D7431F07416120C30E07005801A1EAFD2
:1025630083EE24FFF582EF34FFF583E0643060EE01
:10257300E0642E70031EAF837402120C30E070030C
:10258300022634122696A3A9831226895012742D8B
:102593008E828F83F00EE9FF1226781226BE800A00
:1025A300742B8E828F83F00EE9FF7C007D00EE2476
:1025B3000AFEEF3400FFEC24010CED3400FD12267B
:1025C30058120B76EA122694122658120B76123101
:1025D3004C7002A3E070DFC3EC9402ED1226684056
:1025E300D5ECFAEDFBC3E49CF8E49DF9EE28F58203
:1025F300EF39F583E0C0E0C3E49AF8E49BF9EE28F1
:10260300F8EF39F974F528F874FF39F9EC28F582F5
:10261300ED39F583D0E0F0EC24FF1CED34FFFDC36E
:10262300EC9401ED12266850BCEE24F6FEEF34FF65
:10263300FFEEFAEFFB7403120C097F08020C9BE810
:1026430024FFFAE934FFFB8A828B8322E0888289A4
:1026530083F018EB221231217A0A7B0022C3E09A1D
:10266300A3E09B80029400A2D265D03322C3E098FA
:10267300A3E09980F2851082851183123127C3E488
:1026830098F8E499F922851082851183C3A3E08029
:10269300D424308E828F83F0A3AE82AF8322743032
:1026A3008E828F83F0A3AE82AF83741222E024FF65
:1026B300F0A3E034FFF022A882A98385108285115C
:1026C30083E8F0A3E9F02274F1120C3C74B0120B0E
:1026D300FA7403120C301230EA7411120C30ECF05D
:1026E300A3EDF0740B120C30E4F0A38022745F129C
:1026F3000C301230347402120C30E0F97411120CE5
:102703003012307D120C3A740B120C3012301BF065
:102713007403120C3012306EAA82AB837403120C52
:1027230030EAF0A3EB123134C0E07402120C30D063
:10273300E0F064256010E070B4740B120C301230BA
:1027430034745002263A7403120C3012308A642512
:10275300701A7403120C301230A9120C301226C4F2
:10276300745F120C3012303479258090740D120C82
:1027730030E4F0740E120C30E4F0740A120C30E4FE
:10278300F07405120C30E4F0741E120C301226BAE9
:102793007418120C3074F0F0A374F58018740512D9
:1027A3000C30E070077405120C30EAF07403120C5D
:1027B30030E8F0A3E9F07403120C301230D7120C96
:1027C30030123068120D4B000520A02723E6272B7B
:1027D300A8272DDD2730EA27EE27740A120C30E0F4
:1027E3000480C8740E80F5740D80F17403120C30EC
:1027F30012305BE0642A70607461120C301230682E
:10280300A3E0FB8A828B83E0FCA3E0FD7408120C37
:1028130030ECF0A3EDF0EA24020A0AEB12301012B6
:102823000C301230E77408120C3012268F501F74CC
:1028330008120C30123034C3E49AFAE49BFB740898
:10284300120C301230EA740A120C30E004F07403F4
:10285300120C301226C480587408120C30E4F0A312
:10286300803C7408120C3012304AE875F00AA4F860
:10287300AAF075F00AE9A42AF9E82508F8E9340072
:10288300F974D028F874FF39F97408120C30123037
:10289300FC120C301230D7120C30E8F0A3E9F074BC
:1028A30003120C301230A04007E508C3943A40B23B
:1028B300740A120C30E06007740D120C30E4F074EB
:1028C30003120C3012308A642E60030229607403F1
:1028D300120C301230A9120C301230FC120C3012D0
:1028E300308A642A70337461120C301230988882F3
:1028F3008983E0FEA3E0FFE824020808E93400F935
:102903007461120C3012305B1230FC120C30123036
:10291300D7120C301226C480487E007F0074031245
:102923000C301230A0403AE508C3943A5033EE75A8
:10293300F00AA4FEAAF075F00AEFA42AFFEE250818
:10294300F8EF3400F974D028FE74FF39FF740312D2
:102953000C301230D7120C301226C480C07EFF7F99
:10296300FF7A007403120C3012308A120D4B0003ED
:102973004C7E29687F296C7E298D290A7403120CE9
:10298300301230A9120C301226C47403120C301208
:10299300306EAC82AD837403120C30ECF0A3ED12F5
:1029A3003134C0E07402120C30D0E0F07461120CC8
:1029B30030123098E82402F508E93400F50974026E
:1029C300120C30E0120D4B001000B42E45CE2D47F3
:1029D300A92D58262B634A2A64B52B65CE2D66C7CD
:1029E3002D67A92D69B52B6EFE296F082B70262B39
:1029F300737F2A75262B781A2BC42EEA6034740B46
:102A0300120C30E0FCA3E0FD3395E0FE888289835D
:102A130012307DECF0A3EDF0A3EEF0A3F07461129D
:102A23000C301230B5120C3012305BE8F0A3E9021F
:102A33002712740B120C30123034888289831230BF
:102A43007DEAF0A3EB80D588828983E0C0E0741E21
:102A5300120C30D0E0F07461120C301230B5120C4D
:102A63003012305B1226C4741F120C30A882A98363
:102A7300740F120C30E8F0A3E9022EDC7461120C1F
:102A83003012312BF8A3E012314B7002A3E0700D2A
:102A93008510828511837401F0A374F6F012301649
:102AA30050047E107F277406120C30E4F0A38008D4
:102AB3007406120C3012301B12311C88828983A3D6
:102AC300AA82AB83851082851183EAF0A3EB1231CE
:102AD30034600A7406120C3012304E40D31230C3E5
:102AE300740F120C301226C47406120C3012267E98
:102AF300740F120C30E028F8A3E039F985108285B1
:102B03001183022A78740E120C30E0600AEE700111
:102B1300EF70047E017F007418120C307410F0A360
:102B230074F6F07402120C30E06470703F8882898E
:102B3300831230347414120C301230EAA3E4F0A37D
:102B4300F07461120C3012307DE508F0A3E509F052
:102B53007810E8FA741A120C30EAF0A3E4F0A3F048
:102B6300A3F07405120C30E4F0022C2FEA600E126D
:102B7300300B120C30123104120AF18014746112FA
:102B83000C3012312BF508A3E0F509750A00750B1B
:102B9300007414120C307808120B007402120C30FB
:102BA300E0646F7004780880A9E0647570A2780A05
:102BB30080A0EA601412300B120C301230E78882C6
:102BC3008983780C120AF180157461120C3012316A
:102BD3002BF50CA3E0F50D3395E0F50EF50F74140A
:102BE300120C30780C120B0090F2A67808120AF13E
:102BF3007808790C12013C50217405120C30742DA5
:102C0300F07414120C307808120AF17808120A448E
:102C13007414120C307808120B0090F639780812ED
:102C23000AF1741A120C307808120B00744F120C4C
:102C3300301226BA740F120C301226C47414120CFC
:102C430030C082C08390F2A67808120AF1D083D0F4
:102C530082780812010E60047A0180027A007413EC
:102C6300120C30EAF0EE7001EF7006E07003022DF3
:102C7300181230C31226BE7414120C30780C120AC8
:102C8300F1741A120C307808120AF1780C790812D0
:102C930009D17418120C30E02508FAA3E035098A2B
:102CA30082F583E0C0E0123077D0E0F07414120CA8
:102CB30030780C120AF1741A120C307808120AF1E7
:102CC300780C79081209D17414120C30780C120B99
:102CD300007414120C30C082C08390F2A6780812DC
:102CE3000AF1D083D082780812010E708412301654
:102CF3005023740D120C30E0601B7405120C30E08D
:102D03006004D2F08002C2F07408120C3012302436
:102D130080031231631230C3744F120C30C082C06F
:102D230083851082851183123034D083D082E5826B
:102D3300C39AFAE5839BFBC3EA9EEB12305740D25A
:102D4300740E120C30E07003022EDD7413120C307B
:102D5300E07003022EDD7402120C30E0647860052B
:102D6300E0645870131226BE7402120C30E0C0E007
:102D7300123077D0E0F0801AE0646F6003022EDD3A
:102D830085108285118308123083E064307003025A
:102D93002EDD8510828511831230CE12314B123015
:102DA300827430022EDC7406120C307401F0A3E43A
:102DB300F07402120C30E024FEF0EE7001EF701498
:102DC3007E0180177402120C30E4F07406120C308A
:102DD300E4F0A3F012301650047E067F0012300B8D
:102DE300120C30123104120AF190F2A6780C120A76
:102DF300F17808790C120363500E7405120C3074C9
:102E03002DF0E50BB2E7F50B7408120C3012304AC3
:102E1300741E120C30E58228F8E58339F91226BEB8
:102E2300740E120C30E0F50C780C120CDE740712E1
:102E33000C30E0F50C780C120CDE7402120C30121C
:102E43000CED8E0C8F0D780C120CDA7408120C300A
:102E5300E0F9AA08AB09AC0AAD0B12221E740612E4
:102E63000C09740F120C301230EA740D120C30E09E
:102E730060687405120C30E06004D2F08002C2F086
:102E83007408120C30123024740F120C30C082C03C
:102E930083123044D083D082E0C398F8A3E099F939
:102EA300C3E89EE912305750311230C312316380A8
:102EB300D77403120C301230C97403120C3012266B
:102EC300C48510828511837421F0A374F6F0740F06
:102ED300120C307424F0A374F6F0740F120C30C08B
:102EE30082C083123044D083D082E0C398FEA3E033
:102EF30099FF7408120C3012304E500A7406120CEB
:102F030030E4F0A380327405120C30E06004D2F098
:102F13008002C2F07408120C30E0C39EF8A3E09F55
:102F2300F9A2F0E492E0FAE8C39AF8E99400F9749C
:102F330006120C30E8F0A3E9F0740A120C30E070CA
:102F43002B8019745F120C3012303A120C3012308D
:102F53007D120C3A740B120C301231417406120CB0
:102F6300301230F0120C3012268F50D77405120C29
:102F730030E0604D745F120C301230347405120C63
:102F830030E0F97411120C3012307D120C3A8029A2
:102F9300745F120C30123034851082851183123025
:102FA3008AF97411120C3012307D120C3A8510829A
:102FB3008511831230DD1226BE740B120C301231D0
:102FC30041EE24FF1EEF34FFFFC312266850C17485
:102FD3000A120C30E070030227137406120C30122D
:102FE30030F0120C3012268F5003022713745F1235
:102FF3000C3012303A120C3012307D120C3A740B32
:10300300120C3012314180D2E82404FAE93400FB77
:10301300746122C3EF022668E02401F0A3E03400C8
:1030230022A2F0E492E0F8E0C398FEA3E09400FF4C
:1030330022E0FAA3E0FB22E0FAA3E0FB792074117B
:103043002285108285118312312722C3E09EA3E0DB
:10305300123057229F02266A12305F22E0FAA3E061
:10306300F5838A822212305FE0FA221231278882A6
:103073008983A322851082851183E012308222F88E
:10308300A3E0F58388822212308E22E0F8A3E0F5D4
:10309300838882E02212308EF8A3E0F92212308E68
:1030A300F508C3943022E0240108A3E03400F97446
:1030B300032212308E2402F8A3E03400F974612253
:1030C3008510828511831230CEF922E024FFF8A304
:1030D300E034FF221230DD740322E02401F8A3E080
:1030E3003400F922123113EAF0A3EBF022E024FFBB
:1030F300F0A3E034FFF0740622E8F0A3E9F07403D0
:1031030022123113EAF0A3EBF08882898378082234
:10311300E0FCA3E0F5838C8222F01231212285109A
:1031230082851183E002309B12305FE508F0A3E54E
:1031330009F088828983E022851082851183E02447
:1031430001F0A3E03400F022F912315022851082FD
:10315300851183E8F0A3E9F0851082851183E022CD
:103163001231501230827430F022C082C0838A82BE
:103173008B83123202E9F08A828B83E02401F8A365
:10318300E03400F98A828B83E8F0A3E9F0D083D09E
:10319300822274F7120C3C74FC120BFA85108285A0
:1031A3001183EAF0A3EBF0ECFAEDFB740D120C3093
:1031B300A882A9837402120C30E8F0A3E9F0740228
:1031C300120C308582088583097808120CDA7402A0
:1031D300120C308582088583097808120CDA7C6D1D
:1031E3007D311226CA7404120C098510828511835D
:1031F300123202E4F07404120C097F02020C9BE009
:10320300F8A3E0F58388822274F6120C3CEAF8EB0B
:10321300F9EAFEEBFF8E828F83A3AA82AB838C082D
:103223008D09850882850983A3AC82AD83850882D5
:10323300850983E08E828F83F070D6E8FAE9FB7FFD
:1032430003020C9BFFFFFFFF000000005072657339
:103253007320533120746F0073746172742062752C
:10326300727374202E2E2E00506B7473207472614F
:103273006E736D697427643A0052656164792074D2
:103283006F0072656365697665005045523A202088
:1032930020302E30202500525353493A202020203D
:1032A300202064426D0001000000393135204D4873
:1032B3007A00393033204D487A00383638204D486B
:1032C3007A00343333204D487A0032343830204D7D
:1032D300487A0032343630204D487A003234343064
:1032E300204D487A0032343230204D487A0032354E
:1032F300302E30206B627073002033382E34206BF5
:10330300627073002020312E32206B62707300359F
:1033130030302E30206B627073002031302E30201D
:103323006B627073003130303030303020706B742A
:1033330073002031303030303020706B74730020D4
:1033430020313030303020706B74730020202031F6
:1033530030303020706B7473005472616E736D691A
:1033630074746572005265636569766572004368BB
:1033730069702076657273696F6E20697300746F6C
:103383006F206F6C6420746F20626520200073755A
:1033930070706F72746564206279202020007468F5
:1033A300697320736F6674776172652E2000506CA9
:1033B3006561736520636F6E746163742000796F58
:1033C3007572206C6F63616C2020202020005449AB
:1033D3002073616C6573206F666669636500746F43
:1033E30020676574206E657765722020200063680E
:1033F3006970732C206F7220676F20746F0074697B
:103403002E636F6D2F737570706F727400746F6FAE
:10341300206E657720616E64206E6F7400506C655A
:1034230061736520646F776E6C6F61640061206EF9
:10343300657765722076657273696F6E006F6620BB
:1034430074686973202020202020202000736F6679
:1034530074776172652066726F6D20200074692E27
:10346300636F6D2F6C7077202020202000554E5302
:103473005550504F52544544204348495000200072
:1034830025342E316600253464002531356C7500F2
:1034930038F60D0058C70D00A03E0D005C9D0600D8
:1034A30008F310F318F320F380D725006089250073
:1034B300403B250020ED240028F331F33AF343F396
:1034C30090D0030000960000B00400004CF357F3C3
:1034D30062F320A1070090D00300102700006DF3D2
:1034E3004CF378F340420F00A08601001027000040
:1034F300E803000083F390F39DF3AAF3B7F3C3F358
:103503001020CCF3DCF3ECF3FCF30CF41CF42CF4FC
:103513003CF44CF45CF4CCF36BF4ECF3FCF37BF48D
:103523008BF49BF4ABF4BBF4E803000000002041F0
:10353300010000005C9D0600000103070E0E1C1D28
:103543000F1F1000000F100000101C0603110C00C9
:103553001D1C0E0E0703010000100F0000101F0FAB
:10356300000C1101061C1000202043686970636F72
:103573006E20202020002020434332353130202884
:10358300257529002020434331313130202825750A
:1035930029003031323334353637383941424344E8
:1035A300454600286E756C6C20706F696E74657289
:1035B3002900303132333435363738396162636448
:1035C3006566003F3F3F000000803FF9021550B79A
:1035D30043BA5100E7DB2E0000A0400A0000002D93
:1035E3002A4672657175656E63793F004461746143
:1035F30020726174653F0042757273742073697A37
:10360300653F004F7065726174696E67206D6F640A
:10361300653F004F4C442043484950205645525380
:10362300274E004F4C442053572056455253494F81
:023633004E0047
:04000005000000FCFB
:00000001FF
